{
  "contractName": "TaskManager",
  "abi": [
    {
      "anonymous": false,
      "inputs": [
        {
          "indexed": false,
          "internalType": "uint256",
          "name": "id",
          "type": "uint256"
        },
        {
          "indexed": false,
          "internalType": "address",
          "name": "completedBy",
          "type": "address"
        }
      ],
      "name": "TaskCompleted",
      "type": "event"
    },
    {
      "anonymous": false,
      "inputs": [
        {
          "indexed": false,
          "internalType": "uint256",
          "name": "id",
          "type": "uint256"
        },
        {
          "indexed": false,
          "internalType": "string",
          "name": "description",
          "type": "string"
        },
        {
          "indexed": false,
          "internalType": "address",
          "name": "createdBy",
          "type": "address"
        }
      ],
      "name": "TaskCreated",
      "type": "event"
    },
    {
      "anonymous": false,
      "inputs": [
        {
          "indexed": false,
          "internalType": "uint256",
          "name": "id",
          "type": "uint256"
        },
        {
          "indexed": false,
          "internalType": "address",
          "name": "deletedBy",
          "type": "address"
        }
      ],
      "name": "TaskDeleted",
      "type": "event"
    },
    {
      "inputs": [],
      "name": "taskCount",
      "outputs": [
        {
          "internalType": "uint256",
          "name": "",
          "type": "uint256"
        }
      ],
      "stateMutability": "view",
      "type": "function",
      "constant": true
    },
    {
      "inputs": [
        {
          "internalType": "uint256",
          "name": "",
          "type": "uint256"
        }
      ],
      "name": "tasks",
      "outputs": [
        {
          "internalType": "uint256",
          "name": "id",
          "type": "uint256"
        },
        {
          "internalType": "string",
          "name": "description",
          "type": "string"
        },
        {
          "internalType": "address",
          "name": "createdBy",
          "type": "address"
        },
        {
          "internalType": "bool",
          "name": "isCompleted",
          "type": "bool"
        },
        {
          "internalType": "uint256",
          "name": "createdAt",
          "type": "uint256"
        }
      ],
      "stateMutability": "view",
      "type": "function",
      "constant": true
    },
    {
      "inputs": [
        {
          "internalType": "string",
          "name": "_description",
          "type": "string"
        }
      ],
      "name": "createTask",
      "outputs": [],
      "stateMutability": "nonpayable",
      "type": "function"
    },
    {
      "inputs": [
        {
          "internalType": "uint256",
          "name": "_id",
          "type": "uint256"
        }
      ],
      "name": "completeTask",
      "outputs": [],
      "stateMutability": "nonpayable",
      "type": "function"
    },
    {
      "inputs": [
        {
          "internalType": "uint256",
          "name": "_id",
          "type": "uint256"
        }
      ],
      "name": "getTask",
      "outputs": [
        {
          "internalType": "uint256",
          "name": "",
          "type": "uint256"
        },
        {
          "internalType": "string",
          "name": "",
          "type": "string"
        },
        {
          "internalType": "address",
          "name": "",
          "type": "address"
        },
        {
          "internalType": "bool",
          "name": "",
          "type": "bool"
        },
        {
          "internalType": "uint256",
          "name": "",
          "type": "uint256"
        }
      ],
      "stateMutability": "view",
      "type": "function",
      "constant": true
    },
    {
      "inputs": [
        {
          "internalType": "uint256",
          "name": "_id",
          "type": "uint256"
        }
      ],
      "name": "deleteTask",
      "outputs": [],
      "stateMutability": "nonpayable",
      "type": "function"
    }
  ],
  "bytecode": "0x6080604052600060015534801561001557600080fd5b50610d9e806100256000396000f3fe608060405234801561001057600080fd5b50600436106100625760003560e01c8063111002aa146100675780631d65e77e14610083578063560f3192146100b75780638d977672146100d3578063b6cb58a514610107578063e1e2955814610125575b600080fd5b610081600480360381019061007c919061089f565b610141565b005b61009d600480360381019061009891906108e0565b61028a565b6040516100ae959493929190610ad7565b60405180910390f35b6100d160048036038101906100cc91906108e0565b6103f7565b005b6100ed60048036038101906100e891906108e0565b61054c565b6040516100fe959493929190610ad7565b60405180910390f35b61010f610637565b60405161011c9190610a55565b60405180910390f35b61013f600480360381019061013a91906108e0565b61063d565b005b6001600081548092919061015490610c6a565b91905055506040518060a0016040528060015481526020018281526020013373ffffffffffffffffffffffffffffffffffffffff1681526020016000151581526020014281525060008060015481526020019081526020016000206000820151816000015560208201518160010190805190602001906101d592919061073f565b5060408201518160020160006101000a81548173ffffffffffffffffffffffffffffffffffffffff021916908373ffffffffffffffffffffffffffffffffffffffff16021790555060608201518160020160146101000a81548160ff021916908315150217905550608082015181600301559050507fdc691e972cb25fd6e968744b5a6416d42a052ac1305e3b7ed6777b621304b7f2600154823360405161027f93929190610a99565b60405180910390a150565b600060606000806000806000808881526020019081526020016000206040518060a0016040529081600082015481526020016001820180546102cb90610c38565b80601f01602080910402602001604051908101604052809291908181526020018280546102f790610c38565b80156103445780601f1061031957610100808354040283529160200191610344565b820191906000526020600020905b81548152906001019060200180831161032757829003601f168201915b505050505081526020016002820160009054906101000a900473ffffffffffffffffffffffffffffffffffffffff1673ffffffffffffffffffffffffffffffffffffffff1673ffffffffffffffffffffffffffffffffffffffff1681526020016002820160149054906101000a900460ff16151515158152602001600382015481525050905080600001518160200151826040015183606001518460800151955095509550955095505091939590929450565b600080600083815260200190815260200160002090503373ffffffffffffffffffffffffffffffffffffffff168160020160009054906101000a900473ffffffffffffffffffffffffffffffffffffffff1673ffffffffffffffffffffffffffffffffffffffff161461049f576040517f08c379a000000000000000000000000000000000000000000000000000000000815260040161049690610a35565b60405180910390fd5b6000808381526020019081526020016000206000808201600090556001820160006104ca91906107c5565b6002820160006101000a81549073ffffffffffffffffffffffffffffffffffffffff02191690556002820160146101000a81549060ff0219169055600382016000905550507f342ff6c61d8ac95b75821982d3bac415a2f2e4f121b1fccda188bd67d31324b78233604051610540929190610a70565b60405180910390a15050565b600060205280600052604060002060009150905080600001549080600101805461057590610c38565b80601f01602080910402602001604051908101604052809291908181526020018280546105a190610c38565b80156105ee5780601f106105c3576101008083540402835291602001916105ee565b820191906000526020600020905b8154815290600101906020018083116105d157829003601f168201915b5050505050908060020160009054906101000a900473ffffffffffffffffffffffffffffffffffffffff16908060020160149054906101000a900460ff16908060030154905085565b60015481565b600080600083815260200190815260200160002090503373ffffffffffffffffffffffffffffffffffffffff168160020160009054906101000a900473ffffffffffffffffffffffffffffffffffffffff1673ffffffffffffffffffffffffffffffffffffffff16146106e5576040517f08c379a00000000000000000000000000000000000000000000000000000000081526004016106dc90610a15565b60405180910390fd5b60018160020160146101000a81548160ff0219169083151502179055507fbb5889c77948badf90e8a5c73d55265e5f5d6e4837a79a78c5669691b897faed8233604051610733929190610a70565b60405180910390a15050565b82805461074b90610c38565b90600052602060002090601f01602090048101928261076d57600085556107b4565b82601f1061078657805160ff19168380011785556107b4565b828001600101855582156107b4579182015b828111156107b3578251825591602001919060010190610798565b5b5090506107c19190610805565b5090565b5080546107d190610c38565b6000825580601f106107e35750610802565b601f0160209004906000526020600020908101906108019190610805565b5b50565b5b8082111561081e576000816000905550600101610806565b5090565b600061083561083084610b62565b610b31565b90508281526020810184848401111561084d57600080fd5b610858848285610bf6565b509392505050565b600082601f83011261087157600080fd5b8135610881848260208601610822565b91505092915050565b60008135905061089981610d51565b92915050565b6000602082840312156108b157600080fd5b600082013567ffffffffffffffff8111156108cb57600080fd5b6108d784828501610860565b91505092915050565b6000602082840312156108f257600080fd5b60006109008482850161088a565b91505092915050565b61091281610bae565b82525050565b61092181610bc0565b82525050565b600061093282610b92565b61093c8185610b9d565b935061094c818560208601610c05565b61095581610d40565b840191505092915050565b600061096d602283610b9d565b91507f4f6e6c792063726561746f722063616e20636f6d706c6574652074686520746160008301527f736b0000000000000000000000000000000000000000000000000000000000006020830152604082019050919050565b60006109d3602083610b9d565b91507f4f6e6c792063726561746f722063616e2064656c65746520746865207461736b6000830152602082019050919050565b610a0f81610bec565b82525050565b60006020820190508181036000830152610a2e81610960565b9050919050565b60006020820190508181036000830152610a4e816109c6565b9050919050565b6000602082019050610a6a6000830184610a06565b92915050565b6000604082019050610a856000830185610a06565b610a926020830184610909565b9392505050565b6000606082019050610aae6000830186610a06565b8181036020830152610ac08185610927565b9050610acf6040830184610909565b949350505050565b600060a082019050610aec6000830188610a06565b8181036020830152610afe8187610927565b9050610b0d6040830186610909565b610b1a6060830185610918565b610b276080830184610a06565b9695505050505050565b6000604051905081810181811067ffffffffffffffff82111715610b5857610b57610d11565b5b8060405250919050565b600067ffffffffffffffff821115610b7d57610b7c610d11565b5b601f19601f8301169050602081019050919050565b600081519050919050565b600082825260208201905092915050565b6000610bb982610bcc565b9050919050565b60008115159050919050565b600073ffffffffffffffffffffffffffffffffffffffff82169050919050565b6000819050919050565b82818337600083830152505050565b60005b83811015610c23578082015181840152602081019050610c08565b83811115610c32576000848401525b50505050565b60006002820490506001821680610c5057607f821691505b60208210811415610c6457610c63610ce2565b5b50919050565b6000610c7582610bec565b91507fffffffffffffffffffffffffffffffffffffffffffffffffffffffffffffffff821415610ca857610ca7610cb3565b5b600182019050919050565b7f4e487b7100000000000000000000000000000000000000000000000000000000600052601160045260246000fd5b7f4e487b7100000000000000000000000000000000000000000000000000000000600052602260045260246000fd5b7f4e487b7100000000000000000000000000000000000000000000000000000000600052604160045260246000fd5b6000601f19601f8301169050919050565b610d5a81610bec565b8114610d6557600080fd5b5056fea2646970667358221220b70cdc4aff9b75a1791ccd5d651f056007b1e8465f4895f87c63bd914fe8f4bf64736f6c63430008000033",
  "immutableReferences": {},
  "source": "// SPDX-License-Identifier: MIT\r\npragma solidity ^0.8.0;\r\n\r\ncontract TaskManager {\r\n    struct Task {\r\n        uint id;\r\n        string description;\r\n        address createdBy;\r\n        bool isCompleted;\r\n        uint createdAt;\r\n    }\r\n\r\n    mapping(uint => Task) public tasks;\r\n    uint public taskCount = 0;\r\n\r\n    event TaskCreated(uint id, string description, address createdBy);\r\n    event TaskCompleted(uint id, address completedBy);\r\n    event TaskDeleted(uint id, address deletedBy);\r\n\r\n    function createTask(string memory _description) public {\r\n        taskCount++;\r\n        tasks[taskCount] = Task(taskCount, _description, msg.sender, false, block.timestamp); // Lu thi gian to\r\n        emit TaskCreated(taskCount, _description, msg.sender);\r\n    }\r\n\r\n    function completeTask(uint _id) public {\r\n        Task storage task = tasks[_id];\r\n        require(task.createdBy == msg.sender, \"Only creator can complete the task\");\r\n        task.isCompleted = true;\r\n        emit TaskCompleted(_id, msg.sender);\r\n    }\r\n\r\n    function getTask(uint _id) public view returns (uint, string memory, address, bool, uint) {\r\n        Task memory task = tasks[_id];\r\n        return (task.id, task.description, task.createdBy, task.isCompleted, task.createdAt); // Tr v thi gian to\r\n    }\r\n\r\n    function deleteTask(uint _id) public {\r\n        Task storage task = tasks[_id];\r\n        require(task.createdBy == msg.sender, \"Only creator can delete the task\");\r\n        delete tasks[_id]; // Xa task khi mapping\r\n        emit TaskDeleted(_id, msg.sender);\r\n    }\r\n    \r\n\r\n\r\n}\r\n",
  "sourcePath": "C:\\Users\\viet\\OneDrive\\Desktop\\Blockchain_TaskManager\\taskmanager\\contracts\\TaskManager.sol",
  "compiler": {
    "name": "solc",
    "version": "0.8.0+commit.c7dfd78e.Emscripten.clang"
  },
  "schemaVersion": "3.4.16",
  "updatedAt": "2024-11-12T11:25:30.332Z",
  "networkType": "ethereum",
  "devdoc": {
    "kind": "dev",
    "methods": {},
    "version": 1
  },
  "userdoc": {
    "kind": "user",
    "methods": {},
    "version": 1
  }
}